{
  "_format": "hh-sol-artifact-1",
  "contractName": "CoinFlipGame",
  "sourceName": "contracts/CoinFlipGame.sol",
  "abi": [
    {
      "inputs": [],
      "stateMutability": "nonpayable",
      "type": "constructor"
    },
    {
      "anonymous": false,
      "inputs": [
        {
          "indexed": false,
          "internalType": "uint256",
          "name": "betId",
          "type": "uint256"
        },
        {
          "indexed": false,
          "internalType": "address",
          "name": "player",
          "type": "address"
        },
        {
          "indexed": false,
          "internalType": "uint256",
          "name": "amount",
          "type": "uint256"
        },
        {
          "indexed": false,
          "internalType": "bool",
          "name": "choice",
          "type": "bool"
        }
      ],
      "name": "BetPlaced",
      "type": "event"
    },
    {
      "anonymous": false,
      "inputs": [
        {
          "indexed": false,
          "internalType": "uint256",
          "name": "betId",
          "type": "uint256"
        },
        {
          "indexed": false,
          "internalType": "address",
          "name": "player",
          "type": "address"
        },
        {
          "indexed": false,
          "internalType": "uint256",
          "name": "amount",
          "type": "uint256"
        },
        {
          "indexed": false,
          "internalType": "bool",
          "name": "choice",
          "type": "bool"
        },
        {
          "indexed": false,
          "internalType": "bool",
          "name": "result",
          "type": "bool"
        },
        {
          "indexed": false,
          "internalType": "bool",
          "name": "won",
          "type": "bool"
        }
      ],
      "name": "BetResolved",
      "type": "event"
    },
    {
      "anonymous": false,
      "inputs": [
        {
          "indexed": false,
          "internalType": "uint256",
          "name": "betId",
          "type": "uint256"
        },
        {
          "indexed": false,
          "internalType": "address",
          "name": "player",
          "type": "address"
        },
        {
          "indexed": false,
          "internalType": "uint256",
          "name": "amount",
          "type": "uint256"
        }
      ],
      "name": "cashedOut",
      "type": "event"
    },
    {
      "inputs": [
        {
          "internalType": "uint256",
          "name": "_id",
          "type": "uint256"
        }
      ],
      "name": "cashout",
      "outputs": [],
      "stateMutability": "nonpayable",
      "type": "function"
    },
    {
      "inputs": [],
      "name": "getVRFFee",
      "outputs": [
        {
          "internalType": "uint256",
          "name": "fee",
          "type": "uint256"
        }
      ],
      "stateMutability": "view",
      "type": "function"
    },
    {
      "inputs": [],
      "name": "minimumBet",
      "outputs": [
        {
          "internalType": "uint256",
          "name": "",
          "type": "uint256"
        }
      ],
      "stateMutability": "view",
      "type": "function"
    },
    {
      "inputs": [],
      "name": "owner",
      "outputs": [
        {
          "internalType": "address",
          "name": "",
          "type": "address"
        }
      ],
      "stateMutability": "view",
      "type": "function"
    },
    {
      "inputs": [
        {
          "internalType": "bool",
          "name": "choice",
          "type": "bool"
        }
      ],
      "name": "placeBet",
      "outputs": [],
      "stateMutability": "payable",
      "type": "function"
    },
    {
      "inputs": [],
      "name": "randomizer",
      "outputs": [
        {
          "internalType": "contract IRandomizer",
          "name": "",
          "type": "address"
        }
      ],
      "stateMutability": "view",
      "type": "function"
    },
    {
      "inputs": [
        {
          "internalType": "uint256",
          "name": "_id",
          "type": "uint256"
        },
        {
          "internalType": "bytes32",
          "name": "_value",
          "type": "bytes32"
        }
      ],
      "name": "randomizerCallback",
      "outputs": [],
      "stateMutability": "nonpayable",
      "type": "function"
    },
    {
      "inputs": [],
      "name": "recieve",
      "outputs": [],
      "stateMutability": "payable",
      "type": "function"
    },
    {
      "inputs": [],
      "name": "withdrawContractBalance",
      "outputs": [],
      "stateMutability": "nonpayable",
      "type": "function"
    }
  ],
  "bytecode": "0x608060405273923096da90a3b60eb7e12723fa2e1547ba9236bc600260006101000a81548173ffffffffffffffffffffffffffffffffffffffff021916908373ffffffffffffffffffffffffffffffffffffffff16021790555034801561006557600080fd5b50336000806101000a81548173ffffffffffffffffffffffffffffffffffffffff021916908373ffffffffffffffffffffffffffffffffffffffff16021790555067016345785d8a00006001819055506113c3806100c46000396000f3fe6080604052600436106100865760003560e01c8063bfab3db911610059578063bfab3db914610105578063c38a8afd1461011c578063ebe93caf14610147578063f0034a7e14610170578063f10fb5841461019b57610086565b8063096a37781461008b5780638da5cb5b146100a7578063a9e10bf2146100d2578063a9e732bb146100dc575b600080fd5b6100a560048036038101906100a09190610b8b565b6101c6565b005b3480156100b357600080fd5b506100bc6104bc565b6040516100c99190610bf9565b60405180910390f35b6100da6104e0565b005b3480156100e857600080fd5b5061010360048036038101906100fe9190610c4a565b6104e2565b005b34801561011157600080fd5b5061011a6107b3565b005b34801561012857600080fd5b506101316108aa565b60405161013e9190610c86565b60405180910390f35b34801561015357600080fd5b5061016e60048036038101906101699190610cd7565b6108b0565b005b34801561017c57600080fd5b50610185610a68565b6040516101929190610c86565b60405180910390f35b3480156101a757600080fd5b506101b0610b28565b6040516101bd9190610d76565b60405180910390f35b60006101d0610a68565b9050806001546101e09190610dc0565b341015610222576040517f08c379a000000000000000000000000000000000000000000000000000000000815260040161021990610e77565b60405180910390fd5b600260009054906101000a900473ffffffffffffffffffffffffffffffffffffffff1673ffffffffffffffffffffffffffffffffffffffff16634ffd2e4382306040518363ffffffff1660e01b815260040161027e9190610bf9565b6000604051808303818588803b15801561029757600080fd5b505af11580156102ab573d6000803e3d6000fd5b50505050506000600260009054906101000a900473ffffffffffffffffffffffffffffffffffffffff1673ffffffffffffffffffffffffffffffffffffffff16638bc802fb6207a12060046040518363ffffffff1660e01b8152600401610313929190610f0d565b6020604051808303816000875af1158015610332573d6000803e3d6000fd5b505050506040513d601f19601f820116820180604052508101906103569190610f4b565b90506040518060a001604052803373ffffffffffffffffffffffffffffffffffffffff168152602001833461038b9190610f78565b81526020018415158152602001600015158152602001600015158152506003600083815260200190815260200160002060008201518160000160006101000a81548173ffffffffffffffffffffffffffffffffffffffff021916908373ffffffffffffffffffffffffffffffffffffffff1602179055506020820151816001015560408201518160020160006101000a81548160ff02191690831515021790555060608201518160020160016101000a81548160ff02191690831515021790555060808201518160020160026101000a81548160ff0219169083151502179055509050507fb1bd10cf5ea9540f12b9b182707734fd82deacc56830e2bd316133deb372bff48133843461049e9190610f78565b866040516104af9493929190610fbb565b60405180910390a1505050565b60008054906101000a900473ffffffffffffffffffffffffffffffffffffffff1681565b565b6003600082815260200190815260200160002060000160009054906101000a900473ffffffffffffffffffffffffffffffffffffffff1673ffffffffffffffffffffffffffffffffffffffff163373ffffffffffffffffffffffffffffffffffffffff1614610586576040517f08c379a000000000000000000000000000000000000000000000000000000000815260040161057d90611072565b60405180910390fd5b600115156003600083815260200190815260200160002060020160019054906101000a900460ff161515146105ba57600080fd5b600015156003600083815260200190815260200160002060020160029054906101000a900460ff161515146105ee57600080fd5b60006064600160646106009190610f78565b600260036000868152602001908152602001600020600101546106239190611092565b61062d9190611092565b6106379190611103565b90508047101561067c576040517f08c379a0000000000000000000000000000000000000000000000000000000008152600401610673906111a6565b60405180910390fd5b6003600083815260200190815260200160002060000160009054906101000a900473ffffffffffffffffffffffffffffffffffffffff1673ffffffffffffffffffffffffffffffffffffffff166108fc829081150290604051600060405180830381858888f193505050501580156106f8573d6000803e3d6000fd5b5060016003600084815260200190815260200160002060020160026101000a81548160ff0219169083151502179055507fa0bda795cffa4de843028ee363d226a2498b4929f5a5d866e1ada7ee6ca3975e826003600085815260200190815260200160002060000160009054906101000a900473ffffffffffffffffffffffffffffffffffffffff1660036000868152602001908152602001600020600101546040516107a7939291906111c6565b60405180910390a15050565b60008054906101000a900473ffffffffffffffffffffffffffffffffffffffff1673ffffffffffffffffffffffffffffffffffffffff163373ffffffffffffffffffffffffffffffffffffffff1614610841576040517f08c379a00000000000000000000000000000000000000000000000000000000081526004016108389061126f565b60405180910390fd5b60008054906101000a900473ffffffffffffffffffffffffffffffffffffffff1673ffffffffffffffffffffffffffffffffffffffff166108fc479081150290604051600060405180830381858888f193505050501580156108a7573d6000803e3d6000fd5b50565b60015481565b600260009054906101000a900473ffffffffffffffffffffffffffffffffffffffff1673ffffffffffffffffffffffffffffffffffffffff163373ffffffffffffffffffffffffffffffffffffffff1614610940576040517f08c379a0000000000000000000000000000000000000000000000000000000008152600401610937906112db565b60405180910390fd5b60008060028360001c61095391906112fb565b14905060006003600085815260200190815260200160002060020160009054906101000a900460ff161515821515149050806003600086815260200190815260200160002060020160016101000a81548160ff0219169083151502179055507f27d33f35008ff3bc48be86f7f5353e1a9031680e5130ac59f6b1eb35c0413748846003600087815260200190815260200160002060000160009054906101000a900473ffffffffffffffffffffffffffffffffffffffff1660036000888152602001908152602001600020600101546003600089815260200190815260200160002060020160009054906101000a900460ff168686604051610a5a9695949392919061132c565b60405180910390a150505050565b60006064607d600260009054906101000a900473ffffffffffffffffffffffffffffffffffffffff1673ffffffffffffffffffffffffffffffffffffffff1662e1d8d06207a12060046040518363ffffffff1660e01b8152600401610ace929190610f0d565b602060405180830381865afa158015610aeb573d6000803e3d6000fd5b505050506040513d601f19601f82011682018060405250810190610b0f9190610f4b565b610b199190611092565b610b239190611103565b905090565b600260009054906101000a900473ffffffffffffffffffffffffffffffffffffffff1681565b600080fd5b60008115159050919050565b610b6881610b53565b8114610b7357600080fd5b50565b600081359050610b8581610b5f565b92915050565b600060208284031215610ba157610ba0610b4e565b5b6000610baf84828501610b76565b91505092915050565b600073ffffffffffffffffffffffffffffffffffffffff82169050919050565b6000610be382610bb8565b9050919050565b610bf381610bd8565b82525050565b6000602082019050610c0e6000830184610bea565b92915050565b6000819050919050565b610c2781610c14565b8114610c3257600080fd5b50565b600081359050610c4481610c1e565b92915050565b600060208284031215610c6057610c5f610b4e565b5b6000610c6e84828501610c35565b91505092915050565b610c8081610c14565b82525050565b6000602082019050610c9b6000830184610c77565b92915050565b6000819050919050565b610cb481610ca1565b8114610cbf57600080fd5b50565b600081359050610cd181610cab565b92915050565b60008060408385031215610cee57610ced610b4e565b5b6000610cfc85828601610c35565b9250506020610d0d85828601610cc2565b9150509250929050565b6000819050919050565b6000610d3c610d37610d3284610bb8565b610d17565b610bb8565b9050919050565b6000610d4e82610d21565b9050919050565b6000610d6082610d43565b9050919050565b610d7081610d55565b82525050565b6000602082019050610d8b6000830184610d67565b92915050565b7f4e487b7100000000000000000000000000000000000000000000000000000000600052601160045260246000fd5b6000610dcb82610c14565b9150610dd683610c14565b9250828201905080821115610dee57610ded610d91565b5b92915050565b600082825260208201905092915050565b7f42657420616d6f756e74206f72205652462046656520697320746f6f206c6f7760008201527f2100000000000000000000000000000000000000000000000000000000000000602082015250565b6000610e61602183610df4565b9150610e6c82610e05565b604082019050919050565b60006020820190508181036000830152610e9081610e54565b9050919050565b6000819050919050565b6000610ebc610eb7610eb284610e97565b610d17565b610c14565b9050919050565b610ecc81610ea1565b82525050565b6000819050919050565b6000610ef7610ef2610eed84610ed2565b610d17565b610c14565b9050919050565b610f0781610edc565b82525050565b6000604082019050610f226000830185610ec3565b610f2f6020830184610efe565b9392505050565b600081519050610f4581610c1e565b92915050565b600060208284031215610f6157610f60610b4e565b5b6000610f6f84828501610f36565b91505092915050565b6000610f8382610c14565b9150610f8e83610c14565b9250828203905081811115610fa657610fa5610d91565b5b92915050565b610fb581610b53565b82525050565b6000608082019050610fd06000830187610c77565b610fdd6020830186610bea565b610fea6040830185610c77565b610ff76060830184610fac565b95945050505050565b7f4f6e6c792074686520706572736f6e2077686f20706c6163656420746865206260008201527f65742063616e2063617368206f75742100000000000000000000000000000000602082015250565b600061105c603083610df4565b915061106782611000565b604082019050919050565b6000602082019050818103600083015261108b8161104f565b9050919050565b600061109d82610c14565b91506110a883610c14565b92508282026110b681610c14565b915082820484148315176110cd576110cc610d91565b5b5092915050565b7f4e487b7100000000000000000000000000000000000000000000000000000000600052601260045260246000fd5b600061110e82610c14565b915061111983610c14565b925082611129576111286110d4565b5b828204905092915050565b7f496e73756666696369656e742066756e647320696e20636f6e7472616374207460008201527f6f2063617368206f75742e000000000000000000000000000000000000000000602082015250565b6000611190602b83610df4565b915061119b82611134565b604082019050919050565b600060208201905081810360008301526111bf81611183565b9050919050565b60006060820190506111db6000830186610c77565b6111e86020830185610bea565b6111f56040830184610c77565b949350505050565b7f4f6e6c792074686520636f6e7472616374206f776e65722063616e207769746860008201527f647261772074686520636f6e74726163742062616c616e636500000000000000602082015250565b6000611259603983610df4565b9150611264826111fd565b604082019050919050565b600060208201905081810360008301526112888161124c565b9050919050565b7f43616c6c6572206973206e6f742056524620636f6e7472616374210000000000600082015250565b60006112c5601b83610df4565b91506112d08261128f565b602082019050919050565b600060208201905081810360008301526112f4816112b8565b9050919050565b600061130682610c14565b915061131183610c14565b925082611321576113206110d4565b5b828206905092915050565b600060c0820190506113416000830189610c77565b61134e6020830188610bea565b61135b6040830187610c77565b6113686060830186610fac565b6113756080830185610fac565b61138260a0830184610fac565b97965050505050505056fea264697066735822122010c80a63c4181d594d85155fa352c4898033c65660866cc2aef9f0ac789fb41f64736f6c63430008120033",
  "linkReferences": {},
  "deployedLinkReferences": {}
}